{
  "contractName": "TokenXYZ",
  "abi": [
    {
      "inputs": [
        {
          "internalType": "uint256",
          "name": "initialSupply",
          "type": "uint256"
        },
        {
          "internalType": "uint256",
          "name": "_tokenPrice",
          "type": "uint256"
        }
      ],
      "stateMutability": "nonpayable",
      "type": "constructor"
    },
    {
      "anonymous": false,
      "inputs": [
        {
          "indexed": true,
          "internalType": "address",
          "name": "owner",
          "type": "address"
        },
        {
          "indexed": true,
          "internalType": "address",
          "name": "spender",
          "type": "address"
        },
        {
          "indexed": false,
          "internalType": "uint256",
          "name": "value",
          "type": "uint256"
        }
      ],
      "name": "Approval",
      "type": "event"
    },
    {
      "anonymous": false,
      "inputs": [
        {
          "indexed": true,
          "internalType": "address",
          "name": "from",
          "type": "address"
        },
        {
          "indexed": true,
          "internalType": "address",
          "name": "to",
          "type": "address"
        },
        {
          "indexed": false,
          "internalType": "uint256",
          "name": "value",
          "type": "uint256"
        }
      ],
      "name": "Transfer",
      "type": "event"
    },
    {
      "inputs": [
        {
          "internalType": "address",
          "name": "owner",
          "type": "address"
        },
        {
          "internalType": "address",
          "name": "spender",
          "type": "address"
        }
      ],
      "name": "allowance",
      "outputs": [
        {
          "internalType": "uint256",
          "name": "",
          "type": "uint256"
        }
      ],
      "stateMutability": "view",
      "type": "function",
      "constant": true
    },
    {
      "inputs": [
        {
          "internalType": "address",
          "name": "spender",
          "type": "address"
        },
        {
          "internalType": "uint256",
          "name": "amount",
          "type": "uint256"
        }
      ],
      "name": "approve",
      "outputs": [
        {
          "internalType": "bool",
          "name": "",
          "type": "bool"
        }
      ],
      "stateMutability": "nonpayable",
      "type": "function"
    },
    {
      "inputs": [
        {
          "internalType": "address",
          "name": "account",
          "type": "address"
        }
      ],
      "name": "balanceOf",
      "outputs": [
        {
          "internalType": "uint256",
          "name": "",
          "type": "uint256"
        }
      ],
      "stateMutability": "view",
      "type": "function",
      "constant": true
    },
    {
      "inputs": [],
      "name": "decimals",
      "outputs": [
        {
          "internalType": "uint8",
          "name": "",
          "type": "uint8"
        }
      ],
      "stateMutability": "view",
      "type": "function",
      "constant": true
    },
    {
      "inputs": [
        {
          "internalType": "address",
          "name": "spender",
          "type": "address"
        },
        {
          "internalType": "uint256",
          "name": "subtractedValue",
          "type": "uint256"
        }
      ],
      "name": "decreaseAllowance",
      "outputs": [
        {
          "internalType": "bool",
          "name": "",
          "type": "bool"
        }
      ],
      "stateMutability": "nonpayable",
      "type": "function"
    },
    {
      "inputs": [
        {
          "internalType": "address",
          "name": "spender",
          "type": "address"
        },
        {
          "internalType": "uint256",
          "name": "addedValue",
          "type": "uint256"
        }
      ],
      "name": "increaseAllowance",
      "outputs": [
        {
          "internalType": "bool",
          "name": "",
          "type": "bool"
        }
      ],
      "stateMutability": "nonpayable",
      "type": "function"
    },
    {
      "inputs": [],
      "name": "name",
      "outputs": [
        {
          "internalType": "string",
          "name": "",
          "type": "string"
        }
      ],
      "stateMutability": "view",
      "type": "function",
      "constant": true
    },
    {
      "inputs": [],
      "name": "symbol",
      "outputs": [
        {
          "internalType": "string",
          "name": "",
          "type": "string"
        }
      ],
      "stateMutability": "view",
      "type": "function",
      "constant": true
    },
    {
      "inputs": [],
      "name": "tokenPrice",
      "outputs": [
        {
          "internalType": "uint256",
          "name": "",
          "type": "uint256"
        }
      ],
      "stateMutability": "view",
      "type": "function",
      "constant": true
    },
    {
      "inputs": [],
      "name": "tokensSold",
      "outputs": [
        {
          "internalType": "uint256",
          "name": "",
          "type": "uint256"
        }
      ],
      "stateMutability": "view",
      "type": "function",
      "constant": true
    },
    {
      "inputs": [],
      "name": "totalSupply",
      "outputs": [
        {
          "internalType": "uint256",
          "name": "",
          "type": "uint256"
        }
      ],
      "stateMutability": "view",
      "type": "function",
      "constant": true
    },
    {
      "inputs": [
        {
          "internalType": "address",
          "name": "to",
          "type": "address"
        },
        {
          "internalType": "uint256",
          "name": "amount",
          "type": "uint256"
        }
      ],
      "name": "transfer",
      "outputs": [
        {
          "internalType": "bool",
          "name": "",
          "type": "bool"
        }
      ],
      "stateMutability": "nonpayable",
      "type": "function"
    },
    {
      "inputs": [
        {
          "internalType": "address",
          "name": "from",
          "type": "address"
        },
        {
          "internalType": "address",
          "name": "to",
          "type": "address"
        },
        {
          "internalType": "uint256",
          "name": "amount",
          "type": "uint256"
        }
      ],
      "name": "transferFrom",
      "outputs": [
        {
          "internalType": "bool",
          "name": "",
          "type": "bool"
        }
      ],
      "stateMutability": "nonpayable",
      "type": "function"
    },
    {
      "inputs": [
        {
          "internalType": "uint256",
          "name": "numberOfTokens",
          "type": "uint256"
        }
      ],
      "name": "buyTokens",
      "outputs": [],
      "stateMutability": "payable",
      "type": "function",
      "payable": true
    }
  ],
  "bytecode": "0x60806040523480156200001157600080fd5b5060405162001d6638038062001d66833981810160405281019062000037919062000342565b6040518060400160405280600881526020017f546f6b656e58595a0000000000000000000000000000000000000000000000008152506040518060400160405280600381526020017f58595a00000000000000000000000000000000000000000000000000000000008152508160039080519060200190620000bb9291906200027b565b508060049080519060200190620000d49291906200027b565b50505080600581905550620000f03083620000f860201b60201c565b50506200053b565b600073ffffffffffffffffffffffffffffffffffffffff168273ffffffffffffffffffffffffffffffffffffffff1614156200016b576040517f08c379a00000000000000000000000000000000000000000000000000000000081526004016200016290620003d6565b60405180910390fd5b6200017f600083836200027160201b60201c565b806002600082825462000193919062000426565b92505081905550806000808473ffffffffffffffffffffffffffffffffffffffff1673ffffffffffffffffffffffffffffffffffffffff1681526020019081526020016000206000828254620001ea919062000426565b925050819055508173ffffffffffffffffffffffffffffffffffffffff16600073ffffffffffffffffffffffffffffffffffffffff167fddf252ad1be2c89b69c2b068fc378daa952ba7f163c4a11628f55a4df523b3ef83604051620002519190620003f8565b60405180910390a36200026d600083836200027660201b60201c565b5050565b505050565b505050565b82805462000289906200048d565b90600052602060002090601f016020900481019282620002ad5760008555620002f9565b82601f10620002c857805160ff1916838001178555620002f9565b82800160010185558215620002f9579182015b82811115620002f8578251825591602001919060010190620002db565b5b5090506200030891906200030c565b5090565b5b80821115620003275760008160009055506001016200030d565b5090565b6000815190506200033c8162000521565b92915050565b600080604083850312156200035657600080fd5b600062000366858286016200032b565b925050602062000379858286016200032b565b9150509250929050565b600062000392601f8362000415565b91507f45524332303a206d696e7420746f20746865207a65726f2061646472657373006000830152602082019050919050565b620003d08162000483565b82525050565b60006020820190508181036000830152620003f18162000383565b9050919050565b60006020820190506200040f6000830184620003c5565b92915050565b600082825260208201905092915050565b6000620004338262000483565b9150620004408362000483565b9250827fffffffffffffffffffffffffffffffffffffffffffffffffffffffffffffffff03821115620004785762000477620004c3565b5b828201905092915050565b6000819050919050565b60006002820490506001821680620004a657607f821691505b60208210811415620004bd57620004bc620004f2565b5b50919050565b7f4e487b7100000000000000000000000000000000000000000000000000000000600052601160045260246000fd5b7f4e487b7100000000000000000000000000000000000000000000000000000000600052602260045260246000fd5b6200052c8162000483565b81146200053857600080fd5b50565b61181b806200054b6000396000f3fe6080604052600436106100dd5760003560e01c8063518ab2a81161007f57806395d89b411161005957806395d89b41146102c9578063a457c2d7146102f4578063a9059cbb14610331578063dd62ed3e1461036e576100dd565b8063518ab2a81461023657806370a08231146102615780637ff9b5961461029e576100dd565b806323b872dd116100bb57806323b872dd14610175578063313ce567146101b25780633610724e146101dd57806339509351146101f9576100dd565b806306fdde03146100e2578063095ea7b31461010d57806318160ddd1461014a575b600080fd5b3480156100ee57600080fd5b506100f76103ab565b60405161010491906113f3565b60405180910390f35b34801561011957600080fd5b50610134600480360381019061012f9190610f84565b61043d565b60405161014191906113d8565b60405180910390f35b34801561015657600080fd5b5061015f610460565b60405161016c9190611515565b60405180910390f35b34801561018157600080fd5b5061019c60048036038101906101979190610f35565b61046a565b6040516101a991906113d8565b60405180910390f35b3480156101be57600080fd5b506101c7610499565b6040516101d49190611530565b60405180910390f35b6101f760048036038101906101f29190610fe9565b6104a2565b005b34801561020557600080fd5b50610220600480360381019061021b9190610f84565b610601565b60405161022d91906113d8565b60405180910390f35b34801561024257600080fd5b5061024b6106ab565b6040516102589190611515565b60405180910390f35b34801561026d57600080fd5b5061028860048036038101906102839190610ed0565b6106b1565b6040516102959190611515565b60405180910390f35b3480156102aa57600080fd5b506102b36106f9565b6040516102c09190611515565b60405180910390f35b3480156102d557600080fd5b506102de6106ff565b6040516102eb91906113f3565b60405180910390f35b34801561030057600080fd5b5061031b60048036038101906103169190610f84565b610791565b60405161032891906113d8565b60405180910390f35b34801561033d57600080fd5b5061035860048036038101906103539190610f84565b61087b565b60405161036591906113d8565b60405180910390f35b34801561037a57600080fd5b5061039560048036038101906103909190610ef9565b61089e565b6040516103a29190611515565b60405180910390f35b6060600380546103ba906116d0565b80601f01602080910402602001604051908101604052809291908181526020018280546103e6906116d0565b80156104335780601f1061040857610100808354040283529160200191610433565b820191906000526020600020905b81548152906001019060200180831161041657829003601f168201915b5050505050905090565b600080610448610925565b905061045581858561092d565b600191505092915050565b6000600254905090565b600080610475610925565b9050610482858285610af8565b61048d858585610b84565b60019150509392505050565b60006012905090565b6104ae81600554610e05565b3410156104ba57600080fd5b803073ffffffffffffffffffffffffffffffffffffffff166370a08231306040518263ffffffff1660e01b81526004016104f49190611394565b60206040518083038186803b15801561050c57600080fd5b505afa158015610520573d6000803e3d6000fd5b505050506040513d601f19601f820116820180604052508101906105449190611012565b101561054f57600080fd5b3073ffffffffffffffffffffffffffffffffffffffff1663a9059cbb33836040518363ffffffff1660e01b815260040161058a9291906113af565b602060405180830381600087803b1580156105a457600080fd5b505af11580156105b8573d6000803e3d6000fd5b505050506040513d601f19601f820116820180604052508101906105dc9190610fc0565b6105e557600080fd5b80600660008282546105f79190611567565b9250508190555050565b60008061060c610925565b90506106a0818585600160008673ffffffffffffffffffffffffffffffffffffffff1673ffffffffffffffffffffffffffffffffffffffff16815260200190815260200160002060008973ffffffffffffffffffffffffffffffffffffffff1673ffffffffffffffffffffffffffffffffffffffff1681526020019081526020016000205461069b9190611567565b61092d565b600191505092915050565b60065481565b60008060008373ffffffffffffffffffffffffffffffffffffffff1673ffffffffffffffffffffffffffffffffffffffff168152602001908152602001600020549050919050565b60055481565b60606004805461070e906116d0565b80601f016020809104026020016040519081016040528092919081815260200182805461073a906116d0565b80156107875780601f1061075c57610100808354040283529160200191610787565b820191906000526020600020905b81548152906001019060200180831161076a57829003601f168201915b5050505050905090565b60008061079c610925565b90506000600160008373ffffffffffffffffffffffffffffffffffffffff1673ffffffffffffffffffffffffffffffffffffffff16815260200190815260200160002060008673ffffffffffffffffffffffffffffffffffffffff1673ffffffffffffffffffffffffffffffffffffffff16815260200190815260200160002054905083811015610862576040517f08c379a0000000000000000000000000000000000000000000000000000000008152600401610859906114f5565b60405180910390fd5b61086f828686840361092d565b60019250505092915050565b600080610886610925565b9050610893818585610b84565b600191505092915050565b6000600160008473ffffffffffffffffffffffffffffffffffffffff1673ffffffffffffffffffffffffffffffffffffffff16815260200190815260200160002060008373ffffffffffffffffffffffffffffffffffffffff1673ffffffffffffffffffffffffffffffffffffffff16815260200190815260200160002054905092915050565b600033905090565b600073ffffffffffffffffffffffffffffffffffffffff168373ffffffffffffffffffffffffffffffffffffffff16141561099d576040517f08c379a0000000000000000000000000000000000000000000000000000000008152600401610994906114d5565b60405180910390fd5b600073ffffffffffffffffffffffffffffffffffffffff168273ffffffffffffffffffffffffffffffffffffffff161415610a0d576040517f08c379a0000000000000000000000000000000000000000000000000000000008152600401610a0490611435565b60405180910390fd5b80600160008573ffffffffffffffffffffffffffffffffffffffff1673ffffffffffffffffffffffffffffffffffffffff16815260200190815260200160002060008473ffffffffffffffffffffffffffffffffffffffff1673ffffffffffffffffffffffffffffffffffffffff168152602001908152602001600020819055508173ffffffffffffffffffffffffffffffffffffffff168373ffffffffffffffffffffffffffffffffffffffff167f8c5be1e5ebec7d5bd14f71427d1e84f3dd0314c0f7b2291e5b200ac8c7c3b92583604051610aeb9190611515565b60405180910390a3505050565b6000610b04848461089e565b90507fffffffffffffffffffffffffffffffffffffffffffffffffffffffffffffffff8114610b7e5781811015610b70576040517f08c379a0000000000000000000000000000000000000000000000000000000008152600401610b6790611475565b60405180910390fd5b610b7d848484840361092d565b5b50505050565b600073ffffffffffffffffffffffffffffffffffffffff168373ffffffffffffffffffffffffffffffffffffffff161415610bf4576040517f08c379a0000000000000000000000000000000000000000000000000000000008152600401610beb906114b5565b60405180910390fd5b600073ffffffffffffffffffffffffffffffffffffffff168273ffffffffffffffffffffffffffffffffffffffff161415610c64576040517f08c379a0000000000000000000000000000000000000000000000000000000008152600401610c5b90611415565b60405180910390fd5b610c6f838383610e72565b60008060008573ffffffffffffffffffffffffffffffffffffffff1673ffffffffffffffffffffffffffffffffffffffff16815260200190815260200160002054905081811015610cf5576040517f08c379a0000000000000000000000000000000000000000000000000000000008152600401610cec90611495565b60405180910390fd5b8181036000808673ffffffffffffffffffffffffffffffffffffffff1673ffffffffffffffffffffffffffffffffffffffff16815260200190815260200160002081905550816000808573ffffffffffffffffffffffffffffffffffffffff1673ffffffffffffffffffffffffffffffffffffffff1681526020019081526020016000206000828254610d889190611567565b925050819055508273ffffffffffffffffffffffffffffffffffffffff168473ffffffffffffffffffffffffffffffffffffffff167fddf252ad1be2c89b69c2b068fc378daa952ba7f163c4a11628f55a4df523b3ef84604051610dec9190611515565b60405180910390a3610dff848484610e77565b50505050565b600080821480610e2d575082828385610e1e91906115ee565b925082610e2b91906115bd565b145b610e6c576040517f08c379a0000000000000000000000000000000000000000000000000000000008152600401610e6390611455565b60405180910390fd5b92915050565b505050565b505050565b600081359050610e8b816117a0565b92915050565b600081519050610ea0816117b7565b92915050565b600081359050610eb5816117ce565b92915050565b600081519050610eca816117ce565b92915050565b600060208284031215610ee257600080fd5b6000610ef084828501610e7c565b91505092915050565b60008060408385031215610f0c57600080fd5b6000610f1a85828601610e7c565b9250506020610f2b85828601610e7c565b9150509250929050565b600080600060608486031215610f4a57600080fd5b6000610f5886828701610e7c565b9350506020610f6986828701610e7c565b9250506040610f7a86828701610ea6565b9150509250925092565b60008060408385031215610f9757600080fd5b6000610fa585828601610e7c565b9250506020610fb685828601610ea6565b9150509250929050565b600060208284031215610fd257600080fd5b6000610fe084828501610e91565b91505092915050565b600060208284031215610ffb57600080fd5b600061100984828501610ea6565b91505092915050565b60006020828403121561102457600080fd5b600061103284828501610ebb565b91505092915050565b61104481611648565b82525050565b6110538161165a565b82525050565b60006110648261154b565b61106e8185611556565b935061107e81856020860161169d565b6110878161178f565b840191505092915050565b600061109f602383611556565b91507f45524332303a207472616e7366657220746f20746865207a65726f206164647260008301527f65737300000000000000000000000000000000000000000000000000000000006020830152604082019050919050565b6000611105602283611556565b91507f45524332303a20617070726f766520746f20746865207a65726f20616464726560008301527f73730000000000000000000000000000000000000000000000000000000000006020830152604082019050919050565b600061116b601483611556565b91507f64732d6d6174682d6d756c2d6f766572666c6f770000000000000000000000006000830152602082019050919050565b60006111ab601d83611556565b91507f45524332303a20696e73756666696369656e7420616c6c6f77616e63650000006000830152602082019050919050565b60006111eb602683611556565b91507f45524332303a207472616e7366657220616d6f756e742065786365656473206260008301527f616c616e636500000000000000000000000000000000000000000000000000006020830152604082019050919050565b6000611251602583611556565b91507f45524332303a207472616e736665722066726f6d20746865207a65726f20616460008301527f64726573730000000000000000000000000000000000000000000000000000006020830152604082019050919050565b60006112b7602483611556565b91507f45524332303a20617070726f76652066726f6d20746865207a65726f2061646460008301527f72657373000000000000000000000000000000000000000000000000000000006020830152604082019050919050565b600061131d602583611556565b91507f45524332303a2064656372656173656420616c6c6f77616e63652062656c6f7760008301527f207a65726f0000000000000000000000000000000000000000000000000000006020830152604082019050919050565b61137f81611686565b82525050565b61138e81611690565b82525050565b60006020820190506113a9600083018461103b565b92915050565b60006040820190506113c4600083018561103b565b6113d16020830184611376565b9392505050565b60006020820190506113ed600083018461104a565b92915050565b6000602082019050818103600083015261140d8184611059565b905092915050565b6000602082019050818103600083015261142e81611092565b9050919050565b6000602082019050818103600083015261144e816110f8565b9050919050565b6000602082019050818103600083015261146e8161115e565b9050919050565b6000602082019050818103600083015261148e8161119e565b9050919050565b600060208201905081810360008301526114ae816111de565b9050919050565b600060208201905081810360008301526114ce81611244565b9050919050565b600060208201905081810360008301526114ee816112aa565b9050919050565b6000602082019050818103600083015261150e81611310565b9050919050565b600060208201905061152a6000830184611376565b92915050565b60006020820190506115456000830184611385565b92915050565b600081519050919050565b600082825260208201905092915050565b600061157282611686565b915061157d83611686565b9250827fffffffffffffffffffffffffffffffffffffffffffffffffffffffffffffffff038211156115b2576115b1611702565b5b828201905092915050565b60006115c882611686565b91506115d383611686565b9250826115e3576115e2611731565b5b828204905092915050565b60006115f982611686565b915061160483611686565b9250817fffffffffffffffffffffffffffffffffffffffffffffffffffffffffffffffff048311821515161561163d5761163c611702565b5b828202905092915050565b600061165382611666565b9050919050565b60008115159050919050565b600073ffffffffffffffffffffffffffffffffffffffff82169050919050565b6000819050919050565b600060ff82169050919050565b60005b838110156116bb5780820151818401526020810190506116a0565b838111156116ca576000848401525b50505050565b600060028204905060018216806116e857607f821691505b602082108114156116fc576116fb611760565b5b50919050565b7f4e487b7100000000000000000000000000000000000000000000000000000000600052601160045260246000fd5b7f4e487b7100000000000000000000000000000000000000000000000000000000600052601260045260246000fd5b7f4e487b7100000000000000000000000000000000000000000000000000000000600052602260045260246000fd5b6000601f19601f8301169050919050565b6117a981611648565b81146117b457600080fd5b50565b6117c08161165a565b81146117cb57600080fd5b50565b6117d781611686565b81146117e257600080fd5b5056fea2646970667358221220597895b62b82f88906adb347981909d6a5c9018fcaa5be41f0e56fa1911aae3664736f6c63430008000033",
  "immutableReferences": {},
  "source": "// SPDX-License-Identifier: MIT\npragma solidity ^0.8.0;\n\nimport \"@openzeppelin/contracts/token/ERC20/ERC20.sol\";\n\ncontract TokenXYZ is ERC20 {\n    uint256 public tokenPrice;\n    uint256 public tokensSold;\n\n    constructor(uint256 initialSupply, uint256 _tokenPrice)\n        ERC20(\"TokenXYZ\", \"XYZ\")\n    {\n        tokenPrice = _tokenPrice;\n        _mint(address(this), initialSupply);\n    }\n\n    function mul(uint256 x, uint256 y) internal pure returns (uint256 z) {\n        require(y == 0 || (z = x * y) / y == x, \"ds-math-mul-overflow\");\n    }\n\n    function buyTokens(uint256 numberOfTokens) external payable {\n        // keep track of number of tokens sold\n        // require that a contract have enough tokens\n        // require tha value sent is equal to token price\n        // trigger sell event\n        require(msg.value >= mul(numberOfTokens, tokenPrice));\n        require(this.balanceOf(address(this)) >= numberOfTokens);\n        require(this.transfer(msg.sender, numberOfTokens));\n\n        tokensSold += numberOfTokens;\n    }\n}\n",
  "sourcePath": "/Users/macbookpro/tika/swap-20/TokenSwap/contracts/TokenXYZ.sol",
  "compiler": {
    "name": "solc",
    "version": "0.8.0+commit.c7dfd78e.Emscripten.clang"
  },
  "schemaVersion": "3.4.3",
  "updatedAt": "2022-02-17T10:29:48.309Z",
  "networkType": "ethereum",
  "devdoc": {
    "kind": "dev",
    "methods": {
      "allowance(address,address)": {
        "details": "See {IERC20-allowance}."
      },
      "approve(address,uint256)": {
        "details": "See {IERC20-approve}. NOTE: If `amount` is the maximum `uint256`, the allowance is not updated on `transferFrom`. This is semantically equivalent to an infinite approval. Requirements: - `spender` cannot be the zero address."
      },
      "balanceOf(address)": {
        "details": "See {IERC20-balanceOf}."
      },
      "decimals()": {
        "details": "Returns the number of decimals used to get its user representation. For example, if `decimals` equals `2`, a balance of `505` tokens should be displayed to a user as `5.05` (`505 / 10 ** 2`). Tokens usually opt for a value of 18, imitating the relationship between Ether and Wei. This is the value {ERC20} uses, unless this function is overridden; NOTE: This information is only used for _display_ purposes: it in no way affects any of the arithmetic of the contract, including {IERC20-balanceOf} and {IERC20-transfer}."
      },
      "decreaseAllowance(address,uint256)": {
        "details": "Atomically decreases the allowance granted to `spender` by the caller. This is an alternative to {approve} that can be used as a mitigation for problems described in {IERC20-approve}. Emits an {Approval} event indicating the updated allowance. Requirements: - `spender` cannot be the zero address. - `spender` must have allowance for the caller of at least `subtractedValue`."
      },
      "increaseAllowance(address,uint256)": {
        "details": "Atomically increases the allowance granted to `spender` by the caller. This is an alternative to {approve} that can be used as a mitigation for problems described in {IERC20-approve}. Emits an {Approval} event indicating the updated allowance. Requirements: - `spender` cannot be the zero address."
      },
      "name()": {
        "details": "Returns the name of the token."
      },
      "symbol()": {
        "details": "Returns the symbol of the token, usually a shorter version of the name."
      },
      "totalSupply()": {
        "details": "See {IERC20-totalSupply}."
      },
      "transfer(address,uint256)": {
        "details": "See {IERC20-transfer}. Requirements: - `to` cannot be the zero address. - the caller must have a balance of at least `amount`."
      },
      "transferFrom(address,address,uint256)": {
        "details": "See {IERC20-transferFrom}. Emits an {Approval} event indicating the updated allowance. This is not required by the EIP. See the note at the beginning of {ERC20}. NOTE: Does not update the allowance if the current allowance is the maximum `uint256`. Requirements: - `from` and `to` cannot be the zero address. - `from` must have a balance of at least `amount`. - the caller must have allowance for ``from``'s tokens of at least `amount`."
      }
    },
    "version": 1
  },
  "userdoc": {
    "kind": "user",
    "methods": {},
    "version": 1
  }
}